:100000000C945F000C9487000C9487000C9487007C
:100010000C9487000C9487000C9487000C94870044
:100020000C9487000C9487000C9487000C94870034
:100030000C9487000C9487000C9499060C9487000C
:100040000C94E00D0C9487000C94B10C0C94E30C10
:100050000C9487000C9487000C9487000C94870004
:100060000C9487000C948700446965000000000828
:10007000000201000003040700000000000000006F
:10008000010204081020408001020408102001022F
:1000900004081020040404040404040402020202FC
:1000A00002020303030303030000000025002800ED
:1000B0002B0000000000240027002A00130D11244B
:1000C0001FBECFEFD8E0DEBFCDBF13E0A0E0B1E0B0
:1000D000EEECF9E202C005900D92A636B107D9F711
:1000E00024E0A6E6B3E001C01D92A637B207E1F70F
:1000F00010E0CEEBD0E004C02297FE010E94A010D9
:10010000CC3BD107C9F70E94570D0C94E5140C9411
:100110000000CF93DF9300D0CDB7DEB70E943C083C
:100120009A83898311E0C0906903D0906A03E090BC
:100130006B03F0906C0320E030E040E450E4C70132
:10014000B6010E94CA0E87FF07C010936603109382
:1001500067031092680315C020E030E040E850E4E7
:10016000C701B6010E94CA0E87FF05C0109366033F
:100170001092670304C010926603109367031093F4
:1001800068036091660383E00E94F70A6091670349
:1001900089E00E94F70A609168038AE00E94F70AEA
:1001A00060E370E0CE0101960E947C09BCCFCF9342
:1001B000DF9300D0CDB7DEB70E943C089A838983D5
:1001C0008EE00E94780ABC01882777FD8095982FE1
:1001D0000E94690F2AE038E240EA5BE30E941910AE
:1001E0006093690370936A0380936B0390936C032D
:1001F00061E670E0CE0101960E947C09E1CF2F926A
:100200003F924F925F926F927F928F929F92AF92A6
:10021000BF92CF92DF92EF92FF920F931F93CF93F3
:10022000DF93CDB7DEB72E970FB6F894DEBF0FBEC3
:10023000CDBF3C014A015B01398728871801EA8656
:1002400020E030E0A901C501B4010E94CA0E87FD7B
:1002500005C060E070E080E09FE304C060E070E013
:1002600080E09FEB00E010E0288539850217130736
:100270004CF420E030E040E251E40E94CE0E0F5FEB
:100280001F4FF2CF9B01AC01C501B4010E94660E65
:100290006B017C0120E030E0A901C501B4010E949E
:1002A000CA0E87FF04C0F7FAF094F7F8F094412CD7
:1002B000512C3DEC39838CEC8D839CEC9E83EDE3DB
:1002C000EF8320E030E040E251E469817D818E815E
:1002D0009F810E9419108B018D879B87A701960132
:1002E0000E94CA0E181654F0FFEF4F1A5F0A0983D6
:1002F0001D832D852E833B853F83E3CF411451041D
:1003000021F082010F5F1F4F02C002E010E020E0E9
:1003100030E0A901C501B4010E94CA0E87FF02C0E6
:100320000F5F1F4F888599850196800F911FEFEF12
:100330002E1A3E0A8215930594F4281A390A1214CB
:1003400013047CF4FA85FF2361F0F301C101860DEB
:10035000971D20E22193E817F907E1F705C0212C4A
:10036000312C00E010E001C0810120E030E0A90163
:10037000C501B4010E94CA0E87FF07C0F301E00F58
:10038000F11F8DE280830F5F1F4F4114510439F438
:10039000F301E00FF11F80E380830F5F1F4F1E8684
:1003A0001D869301200F311F3C872B872D853E85AD
:1003B000241535050CF03FC029813D814E815F81B8
:1003C000C701B6010E94CE0E0E94360F4B015C01A0
:1003D0006B857C858D859E85680F791F4AE0C401F9
:1003E0000E94DF11B401882777FD8095982F0E9425
:1003F000690F29813D814E815F810E9419109B0107
:10040000AC01C701B6010E94650E6B017C0120E0C2
:1004100030E040E251E469817D818E819F810E94BC
:10042000CE0E69837D838E839F83ED85FE85319615
:10043000FE87ED87BBCF57FE02C0412C512C040D27
:10044000151D88859985181619063CF4F301E00FEF
:10045000F11F8EE280830F5F1F4FA12CB12C43014F
:10046000800E911E28853985A216B3066CF520E012
:1004700030E040E251E4C701B6010E9419106B015F
:100480007C010E94360F69837A838B839C83B4013D
:100490006A0D7B1D4AE089819A810E94DF11E98102
:1004A000FA81BF01882777FD8095982F0E94690FF8
:1004B0009B01AC01C701B6010E94650E6B017C0176
:1004C000FFEFAF1ABF0ACECFC90137FF02C080E0ED
:1004D00090E0B801680F791F121413048CF43A8568
:1004E00031110EC0F301E60FF71F9F0140E2419367
:1004F000CF01821B930B82159305CCF3620D731D04
:10050000660D771DFB011082C3012E960FB6F8947D
:10051000DEBF0FBECDBFDF91CF911F910F91FF9036
:10052000EF90DF90CF90BF90AF909F908F907F9093
:100530006F905F904F903F902F900895CF93DF93EF
:10054000CDB7DEB7AA970FB6F894DEBF0FBECDBF0A
:100550000E943C089AA789A7812C912CA12CB12C30
:10056000F12C89E0682E81E0782E6E0185E1C80EBD
:10057000D11C97E3492E91E0592E0E94EC0360E0D4
:1005800070E080E090E00E942D044091690350915A
:100590006A0360916B0370916C03E12C00E010E042
:1005A00022E030E0CE0101960E94FF009F938F93DE
:1005B0007F926F92DF92CF920E940412C6010E9436
:1005C000E00361E070E080E090E00E942D040F9075
:1005D0000F900F900F900F900F90809166038111F4
:1005E00003C083E191E009C080916703811103C0DA
:1005F0008EE191E002C08BE291E00E94E00362E0B4
:1006000070E080E090E00E942D04F3948F2D869599
:100610008C3328F09FEFA91AB90AF12C80E09CE3F3
:10062000A916B10428F09FEF891A990AA12CB12CC0
:100630001F928F93BF92AF929F928F925F924F9231
:10064000DF92CF920E9404120FB6F894DEBF0FBE65
:10065000CDBFC6010E94E00368EE71E0CE0189962D
:100660000E947C098ACF26E040E855E260E070E015
:100670008CEC93E00E944F0C61E083E00E94BE0A84
:1006800061E089E00E94BE0A61E08AE00E94BE0A41
:1006900061E083E00E94F70A61E089E00E94F70AC6
:1006A00061E08AE00E94F70A0E94F9030E94EC03CD
:1006B000A12CB12CC12CD12CE12CF12C03E020E099
:1006C00030E046E950E066E471E087ED90E00E949A
:1006D000EB0602E020E030E040EF50E06AE471E039
:1006E0008EE992E00E94EB0601E020E030E046E96E
:1006F00050E063E571E089E890E00E94EB060E941B
:10070000F70768E670E08CEC93E00E94CE0DFFCF17
:10071000F89480916D0390916E03A0916F03B09156
:1007200070030196A11DB11D80936D0390936E031C
:10073000A0936F03B09370037894EACFCF93DF93C5
:100740001F92CDB7DEB7262F682F85E029830E9440
:10075000F70A60E087E00E94F70A298141E06DE036
:100760008BE00E942D0B61E087E00F90DF91CF912D
:100770000C94F70A0F931F93CF93DF93082F60E039
:1007800081E00E949E0385E0080280011124045A42
:100790001E4FC0E0D0E0F801EC0FFD1FE05AF10958
:1007A000608181E00E949E032196C530D10599F7B2
:1007B00060E081E0DF91CF911F910F910C949E0337
:1007C000CF93DF93EC018991882319F00E94BA033B
:1007D000FACFDF91CF910895CF93DF93C8EFD1E0A7
:1007E00060E081E00E949E032197D1F7DF91CF91D5
:1007F000089561E087E00E94BE0A61E086E00E9401
:10080000BE0A61E085E00E94BE0A61E08BE00E94C2
:10081000BE0A61E08DE00E94BE0A60E086E00E94B0
:10082000F70A61E086E00E94F70A61E280E00E9438
:100830009E0361EB80E00E949E0364E080E00E94E2
:100840009E0364E180E00E949E0360E280E00E94DB
:100850009E036CE080E00C949E03CF93C62F682F1C
:10086000606880E00E949E036C2F606480E0CF91FE
:100870000C949E03EC01F89461E08DE00E94BE0AA6
:1008800000E010E00C171D07F4F461E08DE00E9419
:10089000F70A80E899EAA3E0B0E000000197A10917
:1008A000B109D9F760E08DE00E94F70A40E859EA03
:1008B00063E070E000004150510961097109D1F70E
:1008C0000F5F1F4FDFCF40E05AE668E170E00000A5
:1008D0004150510961097109D1F7D2CF81E090E00F
:1008E0000E943A0482E090E00E943A0483E090E0A3
:1008F0000E943A040C94880308950F931F93CF939A
:10090000DF9300D0CDB7DEB789839A830E94360883
:1009100089819A810E94A4108C010E940609011508
:10092000110511F40E947204C8010F900F90DF911D
:10093000CF911F910F910895CF93DF9300D0CDB742
:10094000DEB7009771F089839A830E943608898107
:100950009A810E943C110F900F90DF91CF910C94DF
:1009600006090F900F90DF91CF910895FC01039637
:10097000928381832FEF3FEF348323839683858394
:100980009087878310820895FC0111861086089550
:10099000CF93DF939C01FB01DC011196CD91DC919B
:1009A0001297D383C2838C819D81958384838C81AC
:1009B0009D81DC0113967C936E9312977D836C83EB
:1009C00031872087F90180818F5F8083DF91CF910C
:1009D00008950F931F93CF93DF938C01FB01208128
:1009E00031812F3F8FEF380721F4E801AF81B885BF
:1009F0000EC0D801139612968D919C911397EC011D
:100A0000488159812417350710F0DC01F4CF129684
:100A10008D919C91139793838283EC01FD83EC83EA
:100A2000B583A4831396FC93EE93129711870087E6
:100A3000F80180818F5F8083DF91CF911F910F91AB
:100A40000895CF93DF93FC01A085B18582819381C6
:100A500024813581EC013D832C83C481D5819B8326
:100A60008A8311968D919C9112978E179F0721F47E
:100A70001296DC93CE931197118610868C9181503B
:100A80008C93DF91CF91089531E1FC013083319750
:100A900022E220833197A3E3A083319760833197CB
:100AA000708331971082319760E8608331971082AC
:100AB000319762E06083319763E06083319764E04F
:100AC0006083319765E06083319766E0608331979A
:100AD00067E06083319768E06083319769E0608305
:100AE000319760E1608331973083319732E1308311
:100AF000319733E13083319734E13083319735E1F9
:100B00003083319736E13083319737E13083319745
:100B100038E13083319739E13083319730E23083E7
:100B2000319731E2308331972083319723E220835C
:100B30003197408331975083319726E22083319754
:100B400027E22083319728E22083319729E220830E
:100B5000319720E32083319721E3208386970895FE
:100B600081E087BDEEE6F0E0808182608083A09125
:100B7000CA03B091CB03CD91CDBFDD91DEBFFF9114
:100B8000EF91DF91CF91BF91AF919F918F917F9125
:100B90006F915F914F913F912F911F910F91FF9016
:100BA000EF90DF90CF90BF90AF909F908F907F900D
:100BB0006F905F904F903F902F901F900F900FBEBF
:100BC0000F90089581E008950F920FB6F8940F9258
:100BD0001F9211242F923F924F925F926F927F92B9
:100BE0008F929F92AF92BF92CF92DF92EF92FF923D
:100BF0000F931F932F933F934F935F936F937F9325
:100C00008F939F93AF93BF93CF93DF93EF93FF9314
:100C1000A091CA03B091CB030DB60D920EB60D9202
:100C20000E94FB09A091CA03B091CB03CD91CDBF27
:100C3000DD91DEBFFF91EF91DF91CF91BF91AF9139
:100C40009F918F917F916F915F914F913F912F91E4
:100C50001F910F91FF90EF90DF90CF90BF90AF90DA
:100C60009F908F907F906F905F904F903F902F90CC
:100C70001F900F900FBE0F9008950F920FB6F8942B
:100C80000F921F9211242F923F924F925F926F9278
:100C90007F928F929F92AF92BF92CF92DF92EF920C
:100CA000FF920F931F932F933F934F935F936F93F5
:100CB0007F938F939F93AF93BF93CF93DF93EF93E4
:100CC000FF93A091CA03B091CB030DB60D920EB65F
:100CD0000D920E94460881110E94FB09A091CA034F
:100CE000B091CB03CD91CDBFDD91DEBFFF91EF91F0
:100CF000DF91CF91BF91AF919F918F917F916F9134
:100D00005F914F913F912F911F910F91FF90EF9025
:100D1000DF90CF90BF90AF909F908F907F906F901B
:100D20005F904F903F902F901F900F900FBE0F90AD
:100D300008950E943D061895E0919203F091930367
:100D40008081811103C08FEF9FEF0CC0E09192036F
:100D5000F09193030580F681E02D0680F781E02D68
:100D60008281938190930701809306010895CF9328
:100D7000DF93EC01E091CA03F091CB03938382836C
:100D800080917803909179036091CA037091CB03AD
:100D9000C817D90750F480919003909191036E5F2A
:100DA0007F4FDF91CF910C94E90480919203909151
:100DB00093036E5F7F4F0E94E9048091060190913A
:100DC0000701C817D90720F4D0930701C093060183
:100DD000DF91CF9108953F924F925F926F927F92F1
:100DE0008F929F92AF92BF92CF92DF92EF92FF923B
:100DF0000F931F93CF93DF934C01162F372E5A0179
:100E00003901009711F40E946E04802F90E004973E
:100E100014F00E946E0482E290E00E947D04EC01D6
:100E2000009709F4D1C0C114D10421F4C5010E9476
:100E30007D0401C0C601988F8F8B009721F4CE01ED
:100E40000E949C04C1C0A50165EA70E00E94D8110F
:100E500021E0A21AB1084F88588C4A0C5B1CE12F84
:100E6000F32D80E090E0BF0141919E01280F391FD2
:100E7000D90159964C93DB012C91222321F0019644
:100E80008830910581F718A2102F043008F013E084
:100E90001E8B19A36E01B2E0CB0ED11CC6010E94BD
:100EA000C404CE010C960E94C404D987C88784E08C
:100EB00090E0811B91099D878C87DB8BCA8BA301F6
:100EC000B401C2010E94440599838883E114F104AE
:100ED00019F0F701D183C0830FB6F8940F92809177
:100EE0007A038F5F80937A038091CA039091CB033A
:100EF000892BA9F5D093CB03C093CA0380917A03C1
:100F00008130E1F586EA93E00E94B6048FEA93E02F
:100F10000E94B60488EB93E00E94B60481EC93E053
:100F20000E94B6048DE993E00E94B60484E993E040
:100F30000E94B60487E893E00E94B6048EE793E02F
:100F40000E94B6048DE993E09093930380939203FB
:100F500084E993E090939103809390030FC0809174
:100F6000760381110BC0E091CA03F091CB0386890F
:100F7000081720F0D093CB03C093CA03809172036B
:100F80008F5F809372038E8990917703981710F486
:100F900080937703F9E08F9FC0011124B6018A5531
:100FA0009C4F0E94C8040F900FBE80917603882347
:100FB00049F0E091CA03F091CB038689801710F4C1
:100FC0000E94E40581E001C08FEFDF91CF911F9176
:100FD0000F91FF90EF90DF90CF90BF90AF909F90D8
:100FE0008F907F906F905F904F903F900895AF9259
:100FF000BF92CF92DF92EF92FF920F93A12CB12C70
:10100000C12CD12C8BE7E82E83E0F82E00E020E005
:1010100030E044E650E06CE373E085EC99E00E9438
:10102000EB06813081F4F894809376031092790373
:10103000109278030F91FF90EF90DF90CF90BF90C8
:10104000AF900C94B005811109C00F91FF90EF9003
:10105000DF90CF90BF90AF900C946E040F91FF90F3
:10106000EF90DF90CF90BF90AF9008958091710383
:101070008F5F8093710308950FB6F8940F9280915B
:101080007803909179030F900FBE0895CF92DF926D
:10109000EF92FF920F931F93CF93DF938091710391
:1010A00081119CC08091780390917903019690936F
:1010B00079038093780300917803109179030115E7
:1010C0001105F9F4E0919203F0919303808181116D
:1010D0000E946E048091920390919303209190035B
:1010E0003091910330939303209392039093910353
:1010F00080939003809173038F5F809373030E94AA
:101100009C068091060190910701D12C08171907C0
:1011100008F44DC099E0C92EE0919203F091930339
:101120008081811107C08FEF9FEF9093070180931B
:1011300006013DC0E0919203F09193030580F68192
:10114000E02DC681D7812A813B810217130728F43D
:1011500030930701209306012AC07E0182E0E80E49
:10116000F11CC7010E9421058C899D89892B21F0E2
:10117000CE010C960E9421052E898091770382175B
:1011800010F420937703C29EC0011124B7018A5541
:101190009C4F0E94C804E091CA03F091CB039E8942
:1011A0008689981708F4B8CFDD24D394B5CFE091A1
:1011B000CA03F091CB03E68989E0E89FF00111248E
:1011C000EA55FC4F8081823010F0DD24D394809169
:1011D000750381110BC00E947C0408C080917503C7
:1011E0008F5F809375030E947C04D12C80917403DF
:1011F000882311F0DD24D3948D2DDF91CF911F91A1
:101200000F91FF90EF90DF90CF900895EF92FF92B3
:101210000F931F93CF93DF9380917103811102C0CD
:101220000E946E040FB6F8940F9280917103815062
:101230008093710380917103882311F080E053C083
:1012400080917A038823D1F329E0F22EEE24E394EF
:1012500080918703882351F1E0918C03F0918D03F5
:10126000C681D781CE010C960E9421058E010E5FAA
:101270001F4FC8010E9421058E899091770398170E
:1012800010F480937703F89EC0011124B8018A55A9
:101290009C4F0E94C804E091CA03F091CB039E8941
:1012A00086899817A8F2E0927403D2CF80917503D3
:1012B000811109C080917403813009F0BFCF0E9471
:1012C000E40581E010C0C1E080917503882391F3AB
:1012D0000E9446088111C093740380917503815068
:1012E00080937503F1CF0F900FBEDF91CF911F91C7
:1012F0000F91FF90EF9008950F931F93CF93DF937B
:101300008C01EB01009711F40E946E04209711F4F8
:101310000E946E048091710381110E946E040E94EC
:1013200036088091780390917903F801208131810A
:10133000C20FD31F8217930720F4C217D30740F4BC
:1013400003C0C217D30730F021E08C179D0718F0B7
:1013500020E001C021E0F801D183C083222351F0B5
:101360008091CA039091CB0302960E942105CE0181
:101370000E94B7060E940609811102C00E94E4057E
:10138000DF91CF911F910F91089580917D03882364
:1013900049F10E943608C0917E030E940609CC23C1
:1013A000A1F30FB6F8940F92E0918303F0918403B8
:1013B000C681D781CE0102960E94210580917A03D1
:1013C000815080937A0380917D03815080937D03C7
:1013D0000F900FBE8F89988D0E949C04CE010E94B1
:1013E0009C04D3CF8091A603823010F00E94E405C4
:1013F0000E947A04CACFCF9380917103882321F091
:1014000081E08093740372C010927403A091CA03A8
:10141000B091CB03E091CA03F091CB032D913C91A5
:101420008789908D8217930760F06091CA0370914D
:10143000CB038091CA039091CB03675E7F4F0E94DC
:101440007604E091CA03F091CB0344E150E061E4FB
:1014500073E08789908D0E94CB11892B61F0609198
:10146000CA037091CB038091CA039091CB03675E4E
:101470007F4F0E947604C9E0E0917703CE9FF00190
:101480001124EA55FC4F808181110CC080917703B3
:10149000811102C00E946E04809177038150809375
:1014A0007703EACFE091770389E0E89FF001112408
:1014B000EA55FC4FA181B28112960D90BC91A02DEE
:1014C000B283A183CF010396A817B90731F412960E
:1014D0008D919C911397928381830180F281E02DFD
:1014E000868197819093CB038093CA03CF9108950F
:1014F0008E3008F08E5087702091080190E4299F6B
:1015000090011124822B80937C0080917A0080646A
:1015100080937A0080917A0086FDFCCF80917800DC
:101520002091790090E0922B0895833081F028F487
:10153000813099F08230A1F008958730A9F0883089
:10154000B9F08430D1F4809180008F7D03C0809108
:1015500080008F7780938000089584B58F7702C0D4
:1015600084B58F7D84BD08958091B0008F7703C0CE
:101570008091B0008F7D8093B0000895CF93DF936A
:1015800090E0FC01E058FF4F2491FC01EC56FF4F26
:101590008491882349F190E0880F991FFC01EE5453
:1015A000FF4FA591B49188559F4FFC01C591D491EF
:1015B0009FB7611108C0F8948C91209582238C9379
:1015C000888182230AC0623051F4F8948C91322FC2
:1015D000309583238C938881822B888304C0F89470
:1015E0008C91822B8C939FBFDF91CF9108950F93A5
:1015F0001F93CF93DF931F92CDB7DEB7282F30E034
:10160000F901E459FF4F8491F901E058FF4F14911B
:10161000F901EC56FF4F04910023C9F0882321F013
:1016200069830E94950A6981E02FF0E0EE0FFF1FA9
:10163000E855FF4FA591B4919FB7F8948C91611133
:1016400003C01095812301C0812B8C939FBF0F9005
:10165000DF91CF911F910F910895BF92CF92DF92AA
:10166000EF92FF920F931F93CF93DF93C82ED62E46
:10167000B42EC7E0D0E0022F10E087E0E82EF12C76
:10168000B1100AC0F701EC1BFD0BB80102C0759543
:101690006795EA95E2F707C0B8010C2E02C0759570
:1016A00067950A94E2F7617077278C2D0E94F70AFC
:1016B00061E08D2D0E94F70A60E08D2D0E94F70AEF
:1016C0002197F0F6DF91CF911F910F91FF90EF904E
:1016D000DF90CF90BF900895FC01818D228D90E026
:1016E000805C9F4F821B91098F7399270895FC019D
:1016F000918D828D981731F0828DE80FF11D858DC7
:1017000090E008958FEF9FEF0895FC01918D828DF9
:10171000981761F0828DDF01A80FB11D5D968C9145
:10172000928D9F5F9F73928F90E008958FEF9FEF50
:10173000089589E09DE0892B49F080E090E0892BB5
:1017400029F00E94090D81110C9400000895FC01FC
:10175000848DDF01A80FB11DA35ABF4F2C91848D3A
:1017600090E001968F739927848FA689B7892C936F
:10177000A089B1898C9180648C93938D848D98130A
:1017800006C00288F389E02D80818F7D80830895D3
:10179000CF93DF93EC01888D8823C9F0EA89FB8918
:1017A000808185FD05C0A889B9898C9186FD0FC00F
:1017B0000FB607FCF5CF808185FFF2CFA889B989E4
:1017C0008C9185FFEDCFCE010E94A70BE7CFDF9173
:1017D000CF910895CF92DF92FF920F931F93CF93F3
:1017E000DF931F92CDB7DEB76C01DC015B969C9155
:1017F0005B975C968C915C97981307C05096ED911F
:10180000FC915197808185FD32C0F601038D10E077
:101810000F5F1F4F0F731127F02EF601848DF81202
:1018200011C00FB607FCF9CFD6015096ED91FC918F
:101830005197808185FFF1CFC60169830E94A70B74
:101840006981EBCF838DE80FF11DE35AFF4F608371
:10185000D6015B960C935B975296ED91FC91539752
:1018600080818062808381E058968C930DC0D60180
:101870005696ED91FC91579760835096ED91FC91AF
:10188000519780818064808381E090E00F90DF91A8
:10189000CF911F910F91FF90DF90CF900895BF924D
:1018A000CF92DF92EF92FF92CF93DF93EC016A0128
:1018B0007B01B22EE889F98982E08083411581EEAF
:1018C000580761057105A1F060E079E08DE390E0D3
:1018D000A70196010E947C1021503109410951094C
:1018E0005695479537952795211580E1380798F04B
:1018F000E889F989108260E874E88EE190E0A70138
:1019000096010E947C1021503109410951095695D8
:10191000479537952795EC85FD853083EE85FF85C6
:101920002083188EEC89FD89B082EA89FB89808149
:1019300080618083EA89FB89808188608083EA896D
:10194000FB89808180688083EA89FB8980818F7D23
:101950008083DF91CF91FF90EF90DF90CF90BF9089
:1019600008951F920F920FB60F9211242F938F9309
:101970009F93EF93FF93E091DC03F091DD0380816F
:10198000E091E203F091E30382FD12C09081809127
:10199000E5038F5F8F732091E603821751F0E0918A
:1019A000E503F0E0E453FC4F958F8093E50301C01D
:1019B0008081FF91EF919F918F912F910F900FBE9A
:1019C0000F901F9018951F920F920FB60F9211242F
:1019D0002F933F934F935F936F937F938F939F9337
:1019E000AF93BF93EF93FF938CEC93E00E94A70B10
:1019F000FF91EF91BF91AF919F918F917F916F91E7
:101A00005F914F913F912F910F900FBE0F901F90BC
:101A100018958CEC93E00E946C0B21E0892B09F463
:101A200020E0822F08951092CF031092CE0388EE0B
:101A300093E0A0E0B0E08093D0039093D103A09313
:101A4000D203B093D30389E593E09093CD038093C1
:101A5000CC0385EC90E09093D9038093D80384EC79
:101A600090E09093DB038093DA0380EC90E0909316
:101A7000DD038093DC0381EC90E09093DF0380939F
:101A8000DE0382EC90E09093E1038093E00386EC28
:101A900090E09093E3038093E2031092E5031092A9
:101AA000E6031092E7031092E803089508950E9458
:101AB0002A0E0E94560D0E943303C9E9DBE00E9402
:101AC00088032097E1F30E94990BF9CFCF92DF9220
:101AD000EF92FF920F931F93CF93DF936C017A01E4
:101AE000EB01E60EF71E00E010E0CE15DF0561F019
:101AF0006991D601ED91FC910190F081E02DC60134
:101B00000995080F191FF1CFC801DF91CF911F91DF
:101B10000F91FF90EF90DF90CF900895EF92FF929A
:101B20000F931F93CF93DF938C01FB01C0E0D0E0B4
:101B300064917F018FEFE81AF80A662361F0D801FB
:101B4000ED91FC910190F081E02DC8010995C80F3D
:101B5000D91FF701EDCFCE01DF91CF911F910F91EA
:101B6000FF90EF900895DC01ED91FC910190F081E0
:101B7000E02D09940F931F93CF93DF93EC016DE059
:101B80000E94B30D8C016AE0CE010E94B30D800F5C
:101B9000911FDF91CF911F910F9108950F931F9384
:101BA000CF93DF93EC010E948E0D8C01CE010E9439
:101BB000BA0D800F911FDF91CF911F910F91089562
:101BC0001F920F920FB60F9211242F933F938F9372
:101BD0009F93AF93BF9380916A0490916B04A091FF
:101BE0006C04B0916D043091690423E0230F2D370C
:101BF00020F40196A11DB11D05C026E8230F029611
:101C0000A11DB11D2093690480936A0490936B0415
:101C1000A0936C04B0936D0480916E0490916F0456
:101C2000A0917004B09171040196A11DB11D809323
:101C30006E0490936F04A0937004B0937104BF91ED
:101C4000AF919F918F913F912F910F900FBE0F9069
:101C50001F901895789484B5826084BD84B58160A6
:101C600084BD85B5826085BD85B5816085BDEEE6A4
:101C7000F0E0808181608083E1E8F0E01082808183
:101C800082608083808181608083E0E8F0E08081F1
:101C900081608083E1EBF0E0808184608083E0EB11
:101CA000F0E0808181608083EAE7F0E080818460F9
:101CB0008083808182608083808181608083808155
:101CC000806880831092C10008955058BB27AA27CE
:101CD0000ED075C166D130F06BD120F031F49F3F4A
:101CE00011F41EF45BC10EF4E095E7FB51C1E92F3E
:101CF00077D180F3BA17620773078407950718F046
:101D000071F49EF58FC10EF4E0950B2EBA2FA02D25
:101D10000B01B90190010C01CA01A0011124FF2798
:101D2000591B99F0593F50F4503E68F11A16F04093
:101D3000A22F232F342F4427585FF3CF4695379592
:101D40002795A795F0405395C9F77EF41F16BA0B57
:101D5000620B730B840BBAF09150A1F0FF0FBB1F05
:101D6000661F771F881FC2F70EC0BA0F621F731F4E
:101D7000841F48F4879577956795B795F7959E3FAB
:101D800008F0B3CF9395880F08F09927EE0F979539
:101D900087950895D9D008F481E008950CD00FC13B
:101DA00007D140F0FED030F021F45F3F19F0F0C0D1
:101DB000511139C1F3C014D198F39923C9F35523B4
:101DC000B1F3951B550BBB27AA276217730784072E
:101DD00038F09F5F5F4F220F331F441FAA1FA9F3E4
:101DE00033D00E2E3AF0E0E830D091505040E695D6
:101DF000001CCAF729D0FE2F27D0660F771F881F37
:101E0000BB1F261737074807AB07B0E809F0BB0B25
:101E1000802DBF01FF2793585F4F2AF09E3F510549
:101E200068F0B6C000C15F3FECF3983EDCF38695E6
:101E300077956795B795F7959F5FC9F7880F911DBF
:101E40009695879597F90895E1E0660F771F881FAB
:101E5000BB1F621773078407BA0720F0621B730B5E
:101E6000840BBA0BEE1F88F7E095089504D06894B0
:101E7000B111D9C00895BCD088F09F5790F0B92F08
:101E80009927B751A0F0D1F0660F771F881F991FCF
:101E90001AF0BA95C9F712C0B13081F0C3D0B1E0E1
:101EA0000895C0C0672F782F8827B85F39F0B93FF1
:101EB000CCF3869577956795B395D9F73EF49095D1
:101EC0008095709561957F4F8F4F9F4F0895E8944F
:101ED00009C097FB3EF490958095709561957F4F72
:101EE0008F4F9F4F9923A9F0F92F96E9BB27939520
:101EF000F695879577956795B795F111F8CFFAF430
:101F0000BB0F11F460FF1BC06F5F7F4F8F4F9F4F60
:101F100016C0882311F096E911C0772321F09EE8BE
:101F2000872F762F05C0662371F096E8862F70E024
:101F300060E02AF09A95660F771F881FDAF7880FFE
:101F40009695879597F90895990F0008550FAA0B54
:101F5000E0E8FEEF16161706E807F907C0F01216BC
:101F60001306E407F50798F0621B730B840B950BBF
:101F700039F40A2661F0232B242B252B21F4089514
:101F80000A2609F4A140A6958FEF811D811D0895B1
:101F900097F99F6780E870E060E008959FEF80EC1C
:101FA000089500240A9416161706180609060895BF
:101FB00000240A9412161306140605060895092E25
:101FC0000394000C11F4882352F0BB0F40F4BF2B94
:101FD00011F460FF04C06F5F7F4F8F4F9F4F0895D4
:101FE00057FD9058440F551F59F05F3F71F04795CA
:101FF000880F97FB991F61F09F3F79F087950895AF
:10200000121613061406551FF2CF4695F1DF08C0CD
:10201000161617061806991FF1CF869571056105EA
:1020200008940895E894BB2766277727CB0197F992
:1020300008950BD0C4CFB5DF28F0BADF18F0952390
:1020400009F0A6CFABCF1124EECFCADFA0F3959F46
:10205000D1F3950F50E0551F629FF001729FBB278F
:10206000F00DB11D639FAA27F00DB11DAA1F649F3B
:102070006627B00DA11D661F829F2227B00DA11DEE
:10208000621F739FB00DA11D621F839FA00D611D74
:10209000221F749F3327A00D611D231F849F600D95
:1020A000211D822F762F6A2F11249F5750408AF0CE
:1020B000E1F088234AF0EE0FFF1FBB1F661F771F5A
:1020C000881F91505040A9F79E3F510570F060CF96
:1020D000AACF5F3FECF3983EDCF386957795679542
:1020E000B795F795E7959F5FC1F7FE2B880F911D78
:1020F0009695879597F90895A1E21A2EAA1BBB1B06
:10210000FD010DC0AA1FBB1FEE1FFF1FA217B307C3
:10211000E407F50720F0A21BB30BE40BF50B661FD9
:10212000771F881F991F1A9469F76095709580959D
:1021300090959B01AC01BD01CF010895EE0FFF1FEB
:102140000590F491E02D0994CF93DF9382309105AF
:1021500010F482E090E0E0917404F091750420E0C6
:1021600030E0A0E0B0E0309739F14081518148176C
:102170005907B8F04817590771F482819381109775
:1021800029F013969C938E9312972CC0909375040C
:102190008093740427C02115310531F0421753078D
:1021A00018F0A901DB0101C0EF019A01BD01DF01B7
:1021B0000280F381E02DD7CF21153105F9F0281BDE
:1021C000390B2430310580F48A819B8161157105BA
:1021D00021F0FB019383828304C090937504809364
:1021E0007404FE01329644C0FE01E20FF31F819396
:1021F000919322503109398328833AC02091720487
:1022000030917304232B41F420910201309103019A
:1022100030937304209372042091000130910101E6
:102220002115310541F42DB73EB74091040150917D
:102230000501241B350BE0917204F0917304E21741
:10224000F307A0F42E1B3F0B2817390778F0AC01D9
:102250004E5F5F4F2417350748F04E0F5F1F5093B6
:102260007304409372048193919302C0E0E0F0E024
:10227000CF01DF91CF910895CF93DF93009709F4B9
:1022800087C0FC01329713821282C0917404D091EE
:102290007504209781F420813181280F391F8091A6
:1022A0007204909173048217930779F5F093730485
:1022B000E09372046DC0DE0120E030E0AE17BF078E
:1022C00050F412964D915C9113979D014115510563
:1022D00009F1DA01F3CFB383A28340815181840FE6
:1022E000951F8A179B0771F48D919C911197840F0C
:1022F000951F02969183808312968D919C911397DE
:10230000938382832115310529F4F0937504E093BA
:1023100074043EC0D9011396FC93EE9312974D912D
:102320005D91A40FB51FEA17FB0779F480819181B5
:10233000840F951F0296D90111969C938E938281EA
:10234000938113969C938E931297E0E0F0E08A813C
:102350009B81009719F0FE01EC01F9CFCE010296A6
:1023600028813981820F931F209172043091730468
:102370002817390769F4309729F4109275041092E0
:10238000740402C013821282D0937304C093720447
:10239000DF91CF910895FB01DC0104C08D91019084
:1023A000801921F441505040C8F7881B990B0895BB
:1023B000DC0101C06D9341505040E0F70895BB2708
:1023C0004A3031F4992322F4BDE2909581959F4FD4
:1023D0000C94EB11BB27FB015527AA27880F991FE7
:1023E000AA1FA41710F0A41B83955051B9F7A05D44
:1023F000AA3308F0A95DA193009779F7B111B193C1
:102400001192CB010C940E14AEE0B0E0EAE0F2E1E0
:102410000C94BC140D891E8986E08C831A83098371
:102420008FEF9FE79E838D83AE01475E5F4F6F897D
:10243000788DCE0101960E942612EF81F885E00F7B
:10244000F11F10822E96E4E00C94D814ACE0B0E0BA
:10245000ECE2F2E10C94AE147C016B018A01FC0108
:1024600017821682838181FFBDC1CE0101964C0186
:10247000F7019381F60193FD859193FF81916F019F
:10248000882309F4ABC1853239F493FD859193FF1C
:1024900081916F01853229F4B70190E00E941E14EA
:1024A000E7CF512C312C20E02032A0F48B3269F0A0
:1024B00030F4803259F0833269F420612CC08D32BF
:1024C00039F0803339F4216026C02260246023C0B3
:1024D000286021C027FD27C030ED380F3A3078F44E
:1024E00026FF06C0FAE05F9E300D1124532E13C064
:1024F0008AE0389E300D1124332E20620CC08E32BB
:1025000021F426FD6BC1206406C08C3611F42068CE
:1025100002C0883641F4F60193FD859193FF8191C5
:102520006F018111C1CF982F9F7D9554933028F46E
:102530000C5F1F4FFFE3F9830DC0833631F0833703
:1025400071F0833509F05BC022C0F8018081898376
:102550000E5F1F4F44244394512C540115C0380181
:10256000F2E06F0E711CF801A080B18026FF03C05D
:10257000652D70E002C06FEF7FEFC5012C870E94D0
:1025800003142C0183012C852F77222E17C03801CC
:10259000F2E06F0E711CF801A080B18026FF03C02D
:1025A000652D70E002C06FEF7FEFC5012C870E94A0
:1025B000F8132C012C852068222E830123FC1BC0DC
:1025C000832D90E048165906B0F4B70180E290E000
:1025D0000E941E143A94F4CFF50127FC859127FE42
:1025E00081915F01B70190E00E941E1431103A946E
:1025F000F1E04F1A51084114510471F7E5C08436D7
:1026000011F0893639F5F80127FF07C06081718123
:10261000828193810C5F1F4F08C060817181882780
:1026200077FD8095982F0E5F1F4F2F76B22E97FF64
:1026300009C090958095709561957F4F8F4F9F4F02
:102640002068B22E2AE030E0A4010E945014A82E87
:10265000A81844C0853729F42F7EB22E2AE030E036
:1026600025C0F22FF97FBF2E8F36C1F018F48835C0
:1026700079F0B4C0803719F0883721F0AFC02F2F20
:102680002061B22EB4FE0DC08B2D8460B82E09C01F
:1026900024FF0AC09F2F9660B92E06C028E030E0C4
:1026A00005C020E130E002C020E132E0F801B7FED1
:1026B00007C060817181828193810C5F1F4F06C0CA
:1026C0006081718180E090E00E5F1F4FA4010E9445
:1026D0005014A82EA818FB2DFF77BF2EB6FE0BC0F6
:1026E0002B2D2E7FA51450F4B4FE0AC0B2FC08C0F6
:1026F0002B2D2E7E05C07A2C2B2D03C07A2C01C0E9
:10270000752C24FF0DC0FE01EA0DF11D8081803380
:1027100011F4297E09C022FF06C07394739404C08B
:10272000822F867809F0739423FD13C020FF06C022
:102730005A2C731418F4530C5718732C731468F430
:10274000B70180E290E02C870E941E1473942C85C0
:10275000F5CF731410F4371801C0312C24FF12C0C8
:10276000B70180E390E02C870E941E142C8522FF85
:1027700017C021FF03C088E590E002C088E790E021
:10278000B7010CC0822F867859F021FD02C080E28B
:1027900001C08BE227FD8DE2B70190E00E941E147C
:1027A000A51438F4B70180E390E00E941E145A94F7
:1027B000F7CFAA94F401EA0DF11D8081B70190E0F2
:1027C0000E941E14A110F5CF332009F451CEB70199
:1027D00080E290E00E941E143A94F6CFF7018681C1
:1027E000978102C08FEF9FEF2C96E2E10C94CA1400
:1027F000FC010590615070400110D8F780959095CC
:102800008E0F9F1F0895FC016150704001900110D0
:10281000D8F7809590958E0F9F1F0895DC01FC01DD
:10282000672F71917723E1F7329704C07C916D9304
:1028300070836291AE17BF07C8F308950F931F937B
:10284000CF93DF93182F092FEB018B8181FD03C0FC
:102850008FEF9FEF20C082FF10C04E815F812C81DF
:102860003D81421753077CF4E881F9819F012F5F76
:102870003F4F39832883108306C0E885F985812F6F
:102880000995892B29F72E813F812F5F3F4F3F8389
:102890002E83812F902FDF91CF911F910F9108955B
:1028A000FA01AA27283051F1203181F1E8946F9381
:1028B0006E7F6E5F7F4F8F4F9F4FAF4FB1E03ED027
:1028C000B4E03CD0670F781F891F9A1FA11D680FC5
:1028D000791F8A1F911DA11D6A0F711D811D911DF8
:1028E000A11D20D009F468943F912AE0269F11246D
:1028F0003019305D3193DEF6CF010895462F4770D1
:10290000405D4193B3E00FD0C9F7F6CF462F4F702B
:10291000405D4A3318F0495D31FD4052419302D089
:10292000A9F7EACFB4E0A69597958795779567952F
:10293000BA95C9F700976105710508959B01AC012F
:102940000A2E06945795479537952795BA95C9F756
:10295000620F731F841F951FA01D08952F923F9231
:102960004F925F926F927F928F929F92AF92BF929F
:10297000CF92DF92EF92FF920F931F93CF93DF934B
:10298000CDB7DEB7CA1BDB0B0FB6F894DEBF0FBEA8
:10299000CDBF09942A88398848885F846E847D84F5
:1029A0008C849B84AA84B984C884DF80EE80FD80F7
:1029B0000C811B81AA81B981CE0FD11D0FB6F8946D
:0E29C000DEBF0FBECDBFED010895F894FFCF2E
:1029CE00000076048000FFFF014130203D2025737A
:1029DE002056004C454420495320524544004C4556
:1029EE004420495320475245454E004C454420490A
:1029FE005320424C55450052756E3A2025643A30AC
:102A0E0025643A256400414443004C4344205461FC
:102A1E00736B004C4544205461736B000000000042
:102A2E000000005F00000007000700147F147F14F1
:102A3E00242A7F2A12231308646236495522500035
:102A4E0005030000001C2241000041221C00140856
:102A5E003E081408083E0808005030000008080818
:102A6E000808006060000020100804023E5149452D
:102A7E003E00427F400042615149462141454B3163
:102A8E001814127F1027454545393C4A49493001F3
:102A9E00710905033649494936064949291E00364A
:102AAE00360000005636000008142241001414149B
:102ABE0014140041221408020151090632497941C9
:102ACE003E7E1111117E7F494949363E41414122D8
:102ADE007F4141221C7F494949417F090909013E35
:102AEE004149497A7F0808087F00417F4100204014
:102AFE00413F017F081422417F404040407F020C3D
:102B0E00027F7F0408107F3E4141413E7F09090943
:102B1E00063E4151215E7F091929464649494931F0
:102B2E0001017F01013F4040403F1F2040201F3FD9
:102B3E004038403F6314081463070870080761515A
:102B4E00494543007F4141000204081020004141E5
:102B5E007F00040201020440404040400001020494
:102B6E000020545454787F48444438384444442018
:102B7E00384444487F3854545418087E0901020CD6
:102B8E005252523E7F0804047800447D400020409B
:102B9E00443D007F1028440000417F40007C041813
:102BAE0004787C0804047838444444387C141414A3
:102BBE0008081414187C7C08040408485454542043
:102BCE00043F4440203C4040207C1C2040201C3CC4
:102BDE004030403C44281028440C5050503C446433
:102BEE00544C44000836410000007F00000041367E
:102BFE0008001008081008784641467849444C45AC
:102C0E0000A5A5A5A5A5A5A5A5A5A5A5A5A5A5A50B
:102C1E00A5A5A5A5A500000000EA0B660D6C0B8509
:062C2E000B770BC80B0040
:00000001FF
