:100000000C945F000C9487000C9487000C9487007C
:100010000C9487000C9487000C9487000C94870044
:100020000C9487000C9487000C9487000C94870034
:100030000C9487000C9487000C94D8060C948700CD
:100040000C947E0E0C9487000C944F0D0C94810D33
:100050000C9487000C9487000C9487000C94870004
:100060000C9487000C948700446965000000000828
:10007000000201000003040700000000000000006F
:10008000010204081020408001020408102001022F
:1000900004081020040404040404040402020202FC
:1000A00002020303030303030000000025002800ED
:1000B0002B0000000000240027002A00B10D1124AD
:1000C0001FBECFEFD8E0DEBFCDBF13E0A0E0B1E0B0
:1000D000EAE0FBE202C005900D92A035B107D9F726
:1000E00024E0A0E5B3E001C01D92AD35B207E1F711
:1000F00010E0CEEBD0E004C02297FE010E943E113A
:10010000CC3BD107C9F70E94F50D0C9483150C94D4
:100110000000CF93DF9300D0CDB7DEB70E947B08FD
:100120009A8389838EE00E94B70ABC01882777FDF5
:100130008095982F0E9407102AE038E240EA5BE39E
:100140000E94B71060935003709351038093520341
:100150009093530361E670E0CE0101960E94BB09C3
:10016000E1CF2F923F924F925F926F927F928F9248
:100170009F92AF92BF92CF92DF92EF92FF920F9336
:100180001F93CF93DF93CDB7DEB72E970FB6F894BA
:10019000DEBF0FBECDBF3C014A015B013987288716
:1001A0001801EA8620E030E0A901C501B4010E94EF
:1001B000680F87FD05C060E070E080E09FE304C049
:1001C00060E070E080E09FEB00E010E0288539857A
:1001D000021713074CF420E030E040E251E40E94A3
:1001E0006C0F0F5F1F4FF2CF9B01AC01C501B40133
:1001F0000E94040F6B017C0120E030E0A901C501E1
:10020000B4010E94680F87FF04C0F7FAF094F7F872
:10021000F094412C512C3DEC39838CEC8D839CEC7B
:100220009E83EDE3EF8320E030E040E251E469811A
:100230007D818E819F810E94B7108B018D879B8766
:10024000A70196010E94680F181654F0FFEF4F1A8D
:100250005F0A09831D832D852E833B853F83E3CF72
:100260004114510421F082010F5F1F4F02C002E0D0
:1002700010E020E030E0A901C501B4010E94680F40
:1002800087FF02C00F5F1F4F888599850196800FF9
:10029000911FEFEF2E1A3E0A8215930594F4281A47
:1002A000390A121413047CF4FA85FF2361F0F30178
:1002B000C101860D971D20E22193E817F907E1F7A8
:1002C00005C0212C312C00E010E001C0810120E0AC
:1002D00030E0A901C501B4010E94680F87FF07C083
:1002E000F301E00FF11F8DE280830F5F1F4F411478
:1002F000510439F4F301E00FF11F80E380830F5FB5
:100300001F4F1E861D869301200F311F3C872B87B0
:100310002D853E85241535050CF03FC029813D8192
:100320004E815F81C701B6010E946C0F0E94D40FFD
:100330004B015C016B857C858D859E85680F791FDF
:100340004AE0C4010E947D12B401882777FD8095A0
:10035000982F0E94071029813D814E815F810E9464
:10036000B7109B01AC01C701B6010E94030F6B01DE
:100370007C0120E030E040E251E469817D818E81A2
:100380009F810E946C0F69837D838E839F83ED859F
:10039000FE853196FE87ED87BBCF57FE02C0412C0C
:1003A000512C040D151D88859985181619063CF4E5
:1003B000F301E00FF11F8EE280830F5F1F4FA12C2E
:1003C000B12C4301800E911E28853985A216B306F3
:1003D0006CF520E030E040E251E4C701B6010E9434
:1003E000B7106B017C010E94D40F69837A838B83E1
:1003F0009C83B4016A0D7B1D4AE089819A810E9429
:100400007D12E981FA81BF01882777FD8095982FB9
:100410000E9407109B01AC01C701B6010E94030FA7
:100420006B017C01FFEFAF1ABF0ACECFC90137FFC6
:1004300002C080E090E0B801680F791F1214130425
:100440008CF43A8531110EC0F301E60FF71F9F01BE
:1004500040E24193CF01821B930B82159305CCF3AD
:10046000620D731D660D771DFB011082C3012E9670
:100470000FB6F894DEBF0FBECDBFDF91CF911F91B5
:100480000F91FF90EF90DF90CF90BF90AF909F9033
:100490008F907F906F905F904F903F902F90089536
:1004A000CF93DF93CDB7DEB7AA970FB6F894DEBF30
:1004B0000FBECDBF0E947B089AA789A7812C912CE3
:1004C000A12CB12CF12C8CE0682E81E0782E6E01ED
:1004D00085E1C80ED11C96E1492E91E0592E22E209
:1004E000222E21E0322E0E942B0460E070E080E09A
:1004F00090E00E946C044091500350915103609130
:10050000520370915303E12C00E010E022E030E050
:10051000CE0101960E94B1009F938F937F926F92BC
:10052000DF92CF920E94A212C6010E941F0461E0D6
:1005300070E080E090E00E946C04F3948F2D86952B
:100540000F900F900F900F900F900F908C3328F01A
:100550009FEFA91AB90AF12C80E0ACE3AA16B10406
:1005600028F0BFEF8B1A9B0AA12CB12C1F928F93FE
:10057000BF92AF929F928F925F924F92DF92CF92F3
:100580000E94A212C6010E941F0462E070E080E097
:1005900090E00E946C04809106011F928F933F921D
:1005A0002F92DF92CF920E94A212C6010E941F04D6
:1005B00063E070E080E090E00E946C0480910701AD
:1005C0001F928F93A7E2B1E0BF93AF93DF92CF92D8
:1005D0000E94A212C6010E941F0464E070E080E045
:1005E00090E00E946C04809108011F928F93ACE20E
:1005F000B1E0BF93AF93DF92CF920E94A212C601E7
:100600000E941F0468EE71E0CE0189960E94BB092A
:100610000FB6F894DEBF0FBECDBF65CF26E040E831
:1006200055E260E070E083EB93E00E94ED0C61E046
:1006300083E00E945C0B61E089E00E945C0B61E05A
:100640008AE00E945C0B61E083E00E94950B61E010
:1006500089E00E94950B61E08AE00E94950B0E9460
:1006600038040E942B04A12CB12CC12CD12CE12CDC
:10067000F12C03E020E030E046E950E061E371E076
:1006800089E890E00E942A0702E020E030E040EF95
:1006900050E065E371E080E592E00E942A0701E006
:1006A00020E030E046E950E06EE371E08FE893E04F
:1006B0000E942A070E94360868E670E083EB93E008
:1006C0000E946C0EFFCFF8948091540390915503D3
:1006D000A0915603B09157030196A11DB11D8093BF
:1006E000540390935503A0935603B0935703789403
:1006F000EACF0F931F93CF93DF93EB018A01BC01E5
:1007000083E00E94D40ABE0189E00E94D40AB801A5
:100710008AE0DF91CF911F910F910C94D40ACF936F
:10072000DF9300D0CDB7DEB70E947B089A83898320
:1007300000E010E0EE24EA94F12C03301105D4F52A
:100740000230110519F0C801019602C080E090E066
:10075000CC24CA94D12C98012A5F3E4F4901FC0158
:10076000EA5FFE4F5F01F401808181508083F501D3
:1007700080818F5F808380910801A701481B510908
:1007800080910701B701681B7109809106019701EB
:10079000281B3109C9010E94790368E170E0CE018C
:1007A00001960E94BB0931E0C31AD108E1F60F5F40
:1007B0001F4FC3CF00E010E0C6CFCF93DF931F924F
:1007C000CDB7DEB7262F682F85E029830E94950BD1
:1007D00060E087E00E94950B298141E06DE08BE0AD
:1007E0000E94CB0B61E087E00F90DF91CF910C94DA
:1007F000950B0F931F93CF93DF93082F60E081E059
:100800000E94DD0385E0080280011124095B1E4F70
:10081000C0E0D0E0F801EC0FFD1FE05AF109608163
:1008200081E00E94DD032196C530D10599F760E093
:1008300081E0DF91CF911F910F910C94DD03CF9355
:10084000DF93EC018991882319F00E94F903FACF14
:10085000DF91CF910895CF93DF93C8EFD1E060E0AF
:1008600081E00E94DD032197D1F7DF91CF910895B8
:1008700061E087E00E945C0B61E086E00E945C0B17
:1008800061E085E00E945C0B61E08BE00E945C0B04
:1008900061E08DE00E945C0B60E086E00E94950BB9
:1008A00061E086E00E94950B61E280E00E94DD033A
:1008B00061EB80E00E94DD0364E080E00E94DD03E4
:1008C00064E180E00E94DD0360E280E00E94DD03DD
:1008D0006CE080E00C94DD03CF93C62F682F606836
:1008E00080E00E94DD036C2F606480E0CF910C9467
:1008F000DD03EC01F89461E08DE00E945C0B00E008
:1009000010E00C171D07F4F461E08DE00E94950BD8
:1009100080E899EAA3E0B0E000000197A109B109DD
:10092000D9F760E08DE00E94950B40E859EA63E05A
:1009300070E000004150510961097109D1F70F5F62
:100940001F4FDFCF40E05AE668E170E00000415001
:10095000510961097109D1F7D2CF81E090E00E947D
:10096000790482E090E00E94790483E090E00E94A4
:1009700079040C94630308950F931F93CF93DF932F
:1009800000D0CDB7DEB789839A830E94750889812C
:100990009A810E9442118C010E944509011511059E
:1009A00011F40E94B104C8010F900F90DF91CF9114
:1009B0001F910F910895CF93DF9300D0CDB7DEB78D
:1009C000009771F089839A830E94750889819A81C2
:1009D0000E94DA110F900F90DF91CF910C9445098E
:1009E0000F900F90DF91CF910895FC0103969283B1
:1009F00081832FEF3FEF3483238396838583908712
:100A0000878310820895FC01118610860895CF9384
:100A1000DF939C01FB01DC011196CD91DC911297D3
:100A2000D383C2838C819D81958384838C819D81B6
:100A3000DC0113967C936E9312977D836C833187D0
:100A40002087F90180818F5F8083DF91CF910895A6
:100A50000F931F93CF93DF938C01FB012081318192
:100A60002F3F8FEF380721F4E801AF81B8850EC022
:100A7000D801139612968D919C911397EC014881A1
:100A800059812417350710F0DC01F4CF12968D91AF
:100A90009C91139793838283EC01FD83EC83B58350
:100AA000A4831396FC93EE93129711870087F801A5
:100AB00080818F5F8083DF91CF911F910F91089587
:100AC000CF93DF93FC01A085B1858281938124813E
:100AD0003581EC013D832C83C481D5819B838A833E
:100AE00011968D919C9112978E179F0721F4129663
:100AF000DC93CE931197118610868C9181508C9344
:100B0000DF91CF91089531E1FC013083319722E2EA
:100B100020833197A3E3A08331976083319770835B
:100B200031971082319760E8608331971082319756
:100B300062E06083319763E06083319764E06083B3
:100B4000319765E06083319766E06083319767E0B5
:100B50006083319768E06083319769E06083319703
:100B600060E1608331973083319732E13083319790
:100B700033E13083319734E13083319735E130838D
:100B8000319736E13083319737E13083319738E15F
:100B90003083319739E13083319730E230833197B8
:100BA00031E2308331972083319723E220833197DC
:100BB000408331975083319726E22083319727E293
:100BC0002083319728E22083319729E220833197CF
:100BD00020E32083319721E320838697089581E0E5
:100BE00087BDEEE6F0E0808182608083A091B10352
:100BF000B091B203CD91CDBFDD91DEBFFF91EF91FA
:100C0000DF91CF91BF91AF919F918F917F916F9124
:100C10005F914F913F912F911F910F91FF90EF9016
:100C2000DF90CF90BF90AF909F908F907F906F900C
:100C30005F904F903F902F901F900F900FBE0F909E
:100C4000089581E008950F920FB6F8940F921F92C5
:100C500011242F923F924F925F926F927F928F92C8
:100C60009F92AF92BF92CF92DF92EF92FF920F933B
:100C70001F932F933F934F935F936F937F938F9324
:100C80009F93AF93BF93CF93DF93EF93FF93A09185
:100C9000B103B091B2030DB60D920EB60D920E9443
:100CA0003A0AA091B103B091B203CD91CDBFDD91CD
:100CB000DEBFFF91EF91DF91CF91BF91AF919F91F7
:100CC0008F917F916F915F914F913F912F911F91E4
:100CD0000F91FF90EF90DF90CF90BF90AF909F90DB
:100CE0008F907F906F905F904F903F902F901F90CC
:100CF0000F900FBE0F9008950F920FB6F8940F92B9
:100D00001F9211242F923F924F925F926F927F9287
:100D10008F929F92AF92BF92CF92DF92EF92FF920B
:100D20000F931F932F933F934F935F936F937F93F3
:100D30008F939F93AF93BF93CF93DF93EF93FF93E3
:100D4000A091B103B091B2030DB60D920EB60D9203
:100D50000E94850881110E943A0AA091B103B091C6
:100D6000B203CD91CDBFDD91DEBFFF91EF91DF9159
:100D7000CF91BF91AF919F918F917F916F915F9133
:100D80004F913F912F911F910F91FF90EF90DF9026
:100D9000CF90BF90AF909F908F907F906F905F901B
:100DA0004F903F902F901F900F900FBE0F9008957F
:100DB0000E947C061895E0917903F0917A03808176
:100DC000811103C08FEF9FEF0CC0E0917903F09188
:100DD0007A030580F681E02D0680F781E02D82817F
:100DE000938190930A01809309010895CF93DF9333
:100DF000EC01E091B103F091B2039383828380917F
:100E00005F03909160036091B1037091B203C817C2
:100E1000D90750F480917703909178036E5F7F4FEC
:100E2000DF91CF910C9428058091790390917A03FA
:100E30006E5F7F4F0E9428058091090190910A0101
:100E4000C817D90720F4D0930A01C0930901DF9194
:100E5000CF9108953F924F925F926F927F928F92BF
:100E60009F92AF92BF92CF92DF92EF92FF920F9339
:100E70001F93CF93DF934C01162F372E5A01390160
:100E8000009711F40E94AD04802F90E0049714F0B5
:100E90000E94AD0482E290E00E94BC04EC01009745
:100EA00009F4D1C0C114D10421F4C5010E94BC04CD
:100EB00001C0C601988F8F8B009721F4CE010E944C
:100EC000DB04C1C0A50165EA70E00E94761221E052
:100ED000A21AB1084F88588C4A0C5B1CE12FF32DE5
:100EE00080E090E0BF0141919E01280F391FD90198
:100EF00059964C93DB012C91222321F001968830E6
:100F0000910581F718A2102F043008F013E01E8B12
:100F100019A36E01B2E0CB0ED11CC6010E940305DD
:100F2000CE010C960E940305D987C88784E090E023
:100F3000811B91099D878C87DB8BCA8BA301B40130
:100F4000C2010E94830599838883E114F10419F09A
:100F5000F701D183C0830FB6F8940F92809161039B
:100F60008F5F809361038091B1039091B203892BCD
:100F7000A9F5D093B203C093B1038091610381308E
:100F8000E1F58DE893E00E94F50486E993E00E9484
:100F9000F5048FE993E00E94F50488EA93E00E944B
:100FA000F50484E893E00E94F5048BE793E00E9447
:100FB000F5048EE693E00E94F50485E693E00E9436
:100FC000F50484E893E090937A03809379038BE7A8
:100FD00093E090937803809377030FC080915D0333
:100FE00081110BC0E091B103F091B203868908171B
:100FF00020F0D093B203C093B103809159038F5F67
:10100000809359038E8990915E03981710F4809312
:101010005E03F9E08F9FC0011124B60183579C4FF6
:101020000E9407050F900FBE80915D03882349F051
:10103000E091B103F091B2038689801710F40E9409
:10104000230681E001C08FEFDF91CF911F910F91B7
:10105000FF90EF90DF90CF90BF90AF909F908F90D8
:101060007F906F905F904F903F900895AF92BF92A6
:10107000CF92DF92EF92FF920F93A12CB12CC12C53
:10108000D12C82E6E82E83E0F82E00E020E030E06C
:1010900044E650E067E273E084E09AE00E942A07A9
:1010A000813081F4F89480935D0310926003109274
:1010B0005F030F91FF90EF90DF90CF90BF90AF90C4
:1010C0000C94EF05811109C00F91FF90EF90DF9014
:1010D000CF90BF90AF900C94AD040F91FF90EF9024
:1010E000DF90CF90BF90AF900895809158038F5FAD
:1010F0008093580308950FB6F8940F9280915F0380
:10110000909160030F900FBE0895CF92DF92EF92FF
:10111000FF920F931F93CF93DF9380915803811118
:101120009CC080915F03909160030196909360034F
:1011300080935F0300915F03109160030115110517
:10114000F9F4E0917903F0917A03808181110E9492
:10115000AD048091790390917A03209177033091C7
:10116000780330937A0320937903909378038093E4
:10117000770380915A038F5F80935A030E94DB06A6
:101180008091090190910A01D12C0817190708F4E0
:101190004DC099E0C92EE0917903F0917A038081E6
:1011A000811107C08FEF9FEF90930A01809309018F
:1011B0003DC0E0917903F0917A030580F681E02D3E
:1011C000C681D7812A813B810217130728F4309307
:1011D0000A01209309012AC07E0182E0E80EF11C79
:1011E000C7010E9460058C899D89892B21F0CE0161
:1011F0000C960E9460052E8980915E03821710F480
:1012000020935E03C29EC0011124B70183579C4FF7
:101210000E940705E091B103F091B2039E8986898F
:10122000981708F4B8CFDD24D394B5CFE091B1037B
:10123000F091B203E68989E0E89FF0011124E357B9
:10124000FC4F8081823010F0DD24D39480915C03C8
:1012500081110BC00E94BB0408C080915C038F5FAA
:1012600080935C030E94BB04D12C80915B03882394
:1012700011F0DD24D3948D2DDF91CF911F910F912B
:10128000FF90EF90DF90CF900895EF92FF920F9331
:101290001F93CF93DF9380915803811102C00E9466
:1012A000AD040FB6F8940F9280915803815080934B
:1012B000580380915803882311F080E053C0809137
:1012C00061038823D1F329E0F22EEE24E394809188
:1012D0006E03882351F1E0917303F0917403C6818A
:1012E000D781CE010C960E9460058E010E5F1F4FC4
:1012F000C8010E9460058E8990915E03981710F4D2
:1013000080935E03F89EC0011124B80183579C4F5F
:101310000E940705E091B103F091B2039E8986898E
:101320009817A8F2E0925B03D2CF80915C03811101
:1013300009C080915B03813009F0BFCF0E94230672
:1013400081E010C0C1E080915C03882391F30E948A
:1013500085088111C0935B0380915C038150809369
:101360005C03F1CF0F900FBEDF91CF911F910F91D2
:10137000FF90EF9008950F931F93CF93DF938C010D
:10138000EB01009711F40E94AD04209711F40E9424
:10139000AD048091580381110E94AD040E9475082C
:1013A00080915F0390916003F80120813181C20F29
:1013B000D31F8217930720F4C217D30740F403C04A
:1013C000C217D30730F021E08C179D0718F020E0FA
:1013D00001C021E0F801D183C083222351F0809124
:1013E000B1039091B20302960E946005CE010E9463
:1013F000F6060E944509811102C00E942306DF9172
:10140000CF911F910F91089580916403882349F132
:101410000E947508C09165030E944509CC23A1F381
:101420000FB6F8940F92E0916A03F0916B03C681B6
:10143000D781CE0102960E946005809161038150A0
:1014400080936103809164038150809364030F90C3
:101450000FBE8F89988D0E94DB04CE010E94DB04B1
:10146000D3CF80918D03823010F00E9423060E941A
:10147000B904CACFCF9380915803882321F081E02B
:1014800080935B0372C010925B03A091B103B09193
:10149000B203E091B103F091B2032D913C918789A1
:1014A000908D8217930760F06091B1037091B20341
:1014B0008091B1039091B203675E7F4F0E94B504A3
:1014C000E091B103F091B20344E150E06CE273E0CB
:1014D0008789908D0E946912892B61F06091B10318
:1014E0007091B2038091B1039091B203675E7F4F18
:1014F0000E94B504C9E0E0915E03CE9FF001112483
:10150000E357FC4F808181110CC080915E038111F3
:1015100002C00E94AD0480915E03815080935E03FF
:10152000EACFE0915E0389E0E89FF0011124E357E0
:10153000FC4FA181B28112960D90BC91A02DB28377
:10154000A183CF010396A817B90731F412968D91A4
:101550009C911397928381830180F281E02D868193
:1015600097819093B2038093B103CF9108958E3009
:1015700008F08E50877020910B0190E4299F900114
:101580001124822B80937C0080917A008064809368
:101590007A0080917A0086FDFCCF809178002091BE
:1015A000790090E0922B08951F93CF93DF93182F2B
:1015B000EB0161E00E945C0B209711F460E004C035
:1015C000CF3FD10539F461E0812FDF91CF911F9199
:1015D0000C94950BE12FF0E0E459FF4FE491E330D8
:1015E000F9F048F4E130B9F0E230A1F584B5806259
:1015F00084BDC8BD34C0E730E9F0E83019F1E4300B
:1016000049F580918000806280938000D0938B00A8
:10161000C0938A0024C084B5806884BDC7BD1FC044
:1016200080918000806880938000D0938900C0936F
:10163000880015C08091B00080688093B000C0938E
:10164000B3000DC08091B00080628093B000C09361
:10165000B40005C0C038D1050CF0B5CFAFCFDF91D5
:10166000CF911F910895833081F028F4813099F053
:101670008230A1F008958730A9F08830B9F0843025
:10168000D1F4809180008F7D03C0809180008F779E
:1016900080938000089584B58F7702C084B58F7DD4
:1016A00084BD08958091B0008F7703C08091B00011
:1016B0008F7D8093B0000895CF93DF9390E0FC017D
:1016C000E058FF4F2491FC01EC56FF4F8491882392
:1016D00049F190E0880F991FFC01EE54FF4FA5914E
:1016E000B49188559F4FFC01C591D4919FB761116A
:1016F00008C0F8948C91209582238C938881822352
:101700000AC0623051F4F8948C91322F30958323C3
:101710008C938881822B888304C0F8948C91822BCF
:101720008C939FBFDF91CF9108950F931F93CF9319
:10173000DF931F92CDB7DEB7282F30E0F901E459CF
:10174000FF4F8491F901E058FF4F1491F901EC56D5
:10175000FF4F04910023C9F0882321F069830E9480
:10176000330B6981E02FF0E0EE0FFF1FE855FF4FCC
:10177000A591B4919FB7F8948C91611103C0109515
:10178000812301C0812B8C939FBF0F90DF91CF915C
:101790001F910F910895BF92CF92DF92EF92FF9227
:1017A0000F931F93CF93DF93C82ED62EB42EC7E08E
:1017B000D0E0022F10E087E0E82EF12CB1100AC033
:1017C000F701EC1BFD0BB80102C075956795EA9512
:1017D000E2F707C0B8010C2E02C0759567950A9410
:1017E000E2F7617077278C2D0E94950B61E08D2DBB
:1017F0000E94950B60E08D2D0E94950B2197F0F6CD
:10180000DF91CF911F910F91FF90EF90DF90CF90DC
:10181000BF900895FC01818D228D90E0805C9F4FE8
:10182000821B91098F7399270895FC01918D828DF8
:10183000981731F0828DE80FF11D858D90E00895A5
:101840008FEF9FEF0895FC01918D828D981761F0C5
:10185000828DDF01A80FB11D5D968C91928D9F5FE7
:101860009F73928F90E008958FEF9FEF089587EA1E
:101870009DE0892B49F080E090E0892B29F00E94BF
:10188000A70D81110C9400000895FC01848DDF01E7
:10189000A80FB11DA35ABF4F2C91848D90E00196E3
:1018A0008F739927848FA689B7892C93A089B189D2
:1018B0008C9180648C93938D848D981306C00288DC
:1018C000F389E02D80818F7D80830895CF93DF930E
:1018D000EC01888D8823C9F0EA89FB89808185FD28
:1018E00005C0A889B9898C9186FD0FC00FB607FC89
:1018F000F5CF808185FFF2CFA889B9898C9185FFCA
:10190000EDCFCE010E94450CE7CFDF91CF91089536
:10191000CF92DF92FF920F931F93CF93DF931F928B
:10192000CDB7DEB76C01DC015B969C915B975C9652
:101930008C915C97981307C05096ED91FC9151974C
:10194000808185FD32C0F601038D10E00F5F1F4FCF
:101950000F731127F02EF601848DF81211C00FB607
:1019600007FCF9CFD6015096ED91FC9151978081FB
:1019700085FFF1CFC60169830E94450C6981EBCFD9
:10198000838DE80FF11DE35AFF4F6083D6015B960C
:101990000C935B975296ED91FC91539780818062F6
:1019A000808381E058968C930DC0D6015696ED91B8
:1019B000FC91579760835096ED91FC9151978081EF
:1019C0008064808381E090E00F90DF91CF911F9140
:1019D0000F91FF90DF90CF900895BF92CF92DF924A
:1019E000EF92FF92CF93DF93EC016A017B01B22E5D
:1019F000E889F98982E08083411581EE5807610505
:101A00007105A1F060E079E08DE390E0A701960117
:101A10000E941A11215031094109510956954795E3
:101A200037952795211580E1380798F0E889F989DD
:101A3000108260E874E88EE190E0A70196010E94B0
:101A40001A11215031094109510956954795379589
:101A50002795EC85FD853083EE85FF852083188EE4
:101A6000EC89FD89B082EA89FB898081806180836D
:101A7000EA89FB89808188608083EA89FB8980818B
:101A800080688083EA89FB8980818F7D8083DF91F4
:101A9000CF91FF90EF90DF90CF90BF9008951F926D
:101AA0000F920FB60F9211242F938F939F93EF9362
:101AB000FF93E091C303F091C4038081E091C903D7
:101AC000F091CA0382FD12C090818091CC038F5F98
:101AD0008F732091CD03821751F0E091CC03F0E099
:101AE000ED54FC4F958F8093CC0301C08081FF9112
:101AF000EF919F918F912F910F900FBE0F901F909C
:101B000018951F920F920FB60F9211242F933F93A7
:101B10004F935F936F937F938F939F93AF93BF93F5
:101B2000EF93FF9383EB93E00E94450CFF91EF91BD
:101B3000BF91AF919F918F917F916F915F914F91E5
:101B40003F912F910F900FBE0F901F90189583EB30
:101B500093E00E940A0C21E0892B09F420E0822FF7
:101B600008951092B6031092B50388EE93E0A0E0BA
:101B7000B0E08093B7039093B803A093B903B093F8
:101B8000BA0384E493E09093B4038093B30385ECA9
:101B900090E09093C0038093BF0384EC90E0909317
:101BA000C2038093C10380EC90E09093C4038093C0
:101BB000C30381EC90E09093C6038093C50382EC4D
:101BC00090E09093C8038093C70386EC90E09093D5
:101BD000CA038093C9031092CC031092CD031092D4
:101BE000CE031092CF03089508950E94C80E0E945C
:101BF000F40D0E940E03C7E3DCE00E94630320970C
:101C0000E1F30E94370CF9CFCF92DF92EF92FF926F
:101C10000F931F93CF93DF936C017A01EB01E60ED4
:101C2000F71E00E010E0CE15DF0561F06991D601E6
:101C3000ED91FC910190F081E02DC6010995080F0E
:101C4000191FF1CFC801DF91CF911F910F91FF9024
:101C5000EF90DF90CF900895EF92FF920F931F9334
:101C6000CF93DF938C01FB01C0E0D0E064917F0152
:101C70008FEFE81AF80A662361F0D801ED91FC9124
:101C80000190F081E02DC8010995C80FD91FF70117
:101C9000EDCFCE01DF91CF911F910F91FF90EF908B
:101CA0000895DC01ED91FC910190F081E02D099403
:101CB0000F931F93CF93DF93EC016DE00E94510EC1
:101CC0008C016AE0CE010E94510E800F911FDF91BE
:101CD000CF911F910F9108950F931F93CF93DF938F
:101CE000EC010E942C0E8C01CE010E94580E800F38
:101CF000911FDF91CF911F910F9108951F920F9225
:101D00000FB60F9211242F933F938F939F93AF930E
:101D1000BF938091510490915204A0915304B091CB
:101D200054043091500423E0230F2D3720F4019602
:101D3000A11DB11D05C026E8230F0296A11DB11DEE
:101D4000209350048093510490935204A093530421
:101D5000B09354048091550490915604A091570477
:101D6000B09158040196A11DB11D80935504909324
:101D70005604A0935704B0935804BF91AF919F911C
:101D80008F913F912F910F900FBE0F901F9018953C
:101D9000789484B5826084BD84B5816084BD85B546
:101DA000826085BD85B5816085BDEEE6F0E080810D
:101DB00081608083E1E8F0E010828081826080832E
:101DC000808181608083E0E8F0E0808181608083B1
:101DD000E1EBF0E0808184608083E0EBF0E08081E3
:101DE00081608083EAE7F0E0808184608083808185
:101DF000826080838081816080838081806880832D
:101E00001092C10008955058BB27AA270ED075C163
:101E100066D130F06BD120F031F49F3F11F41EF405
:101E20005BC10EF4E095E7FB51C1E92F77D180F358
:101E3000BA17620773078407950718F071F49EF5C7
:101E40008FC10EF4E0950B2EBA2FA02D0B01B90116
:101E500090010C01CA01A0011124FF27591B99F020
:101E6000593F50F4503E68F11A16F040A22F232F2C
:101E7000342F4427585FF3CF469537952795A7957C
:101E8000F0405395C9F77EF41F16BA0B620B730B23
:101E9000840BBAF09150A1F0FF0FBB1F661F771F94
:101EA000881FC2F70EC0BA0F621F731F841F48F449
:101EB000879577956795B795F7959E3F08F0B3CFCF
:101EC0009395880F08F09927EE0F979587950895B9
:101ED000D9D008F481E008950CD00FC107D140F0AB
:101EE000FED030F021F45F3F19F0F0C0511139C13C
:101EF000F3C014D198F39923C9F35523B1F3951B7B
:101F0000550BBB27AA2762177307840738F09F5F1A
:101F10005F4F220F331F441FAA1FA9F333D00E2E89
:101F20003AF0E0E830D091505040E695001CCAF7F6
:101F300029D0FE2F27D0660F771F881FBB1F2617BB
:101F400037074807AB07B0E809F0BB0B802DBF018E
:101F5000FF2793585F4F2AF09E3F510568F0B6C0A7
:101F600000C15F3FECF3983EDCF38695779567956B
:101F7000B795F7959F5FC9F7880F911D969587953F
:101F800097F90895E1E0660F771F881FBB1F62175E
:101F900073078407BA0720F0621B730B840BBA0B1C
:101FA000EE1F88F7E095089504D06894B111D9C068
:101FB0000895BCD088F09F5790F0B92F9927B7515A
:101FC000A0F0D1F0660F771F881F991F1AF0BA95FD
:101FD000C9F712C0B13081F0C3D0B1E00895C0C0DC
:101FE000672F782F8827B85F39F0B93FCCF38695F3
:101FF00077956795B395D9F73EF490958095709550
:1020000061957F4F8F4F9F4F0895E89409C097FBCC
:102010003EF490958095709561957F4F8F4F9F4FBF
:102020009923A9F0F92F96E9BB279395F695879503
:1020300077956795B795F111F8CFFAF4BB0F11F4C6
:1020400060FF1BC06F5F7F4F8F4F9F4F16C088236D
:1020500011F096E911C0772321F09EE8872F762FA3
:1020600005C0662371F096E8862F70E060E02AF0E4
:102070009A95660F771F881FDAF7880F96958795D0
:1020800097F90895990F0008550FAA0BE0E8FEEFA5
:1020900016161706E807F907C0F012161306E4072C
:1020A000F50798F0621B730B840B950B39F40A2625
:1020B00061F0232B242B252B21F408950A2609F403
:1020C000A140A6958FEF811D811D089597F99F6707
:1020D00080E870E060E008959FEF80EC08950024B0
:1020E0000A941616170618060906089500240A947D
:1020F00012161306140605060895092E0394000C03
:1021000011F4882352F0BB0F40F4BF2B11F460FF91
:1021100004C06F5F7F4F8F4F9F4F089557FD9058BA
:10212000440F551F59F05F3F71F04795880F97FB9B
:10213000991F61F09F3F79F0879508951216130655
:102140001406551FF2CF4695F1DF08C01616170684
:102150001806991FF1CF86957105610508940895B9
:10216000E894BB2766277727CB0197F908950BD012
:10217000C4CFB5DF28F0BADF18F0952309F0A6CF59
:10218000ABCF1124EECFCADFA0F3959FD1F3950F0B
:1021900050E0551F629FF001729FBB27F00DB11DEB
:1021A000639FAA27F00DB11DAA1F649F6627B00D7B
:1021B000A11D661F829F2227B00DA11D621F739F64
:1021C000B00DA11D621F839FA00D611D221F749F72
:1021D0003327A00D611D231F849F600D211D822FB9
:1021E000762F6A2F11249F5750408AF0E1F0882300
:1021F0004AF0EE0FFF1FBB1F661F771F881F91500D
:102200005040A9F79E3F510570F060CFAACF5F3FC5
:10221000ECF3983EDCF3869577956795B795F7953F
:10222000E7959F5FC1F7FE2B880F911D96958795C7
:1022300097F90895A1E21A2EAA1BBB1BFD010DC040
:10224000AA1FBB1FEE1FFF1FA217B307E407F50766
:1022500020F0A21BB30BE40BF50B661F771F881F42
:10226000991F1A9469F760957095809590959B01D8
:10227000AC01BD01CF010895EE0FFF1F0590F49151
:10228000E02D0994CF93DF938230910510F482E022
:1022900090E0E0915B04F0915C0420E030E0A0E08D
:1022A000B0E0309739F14081518148175907B8F0B3
:1022B0004817590771F482819381109729F013967A
:1022C0009C938E9312972CC090935C0480935B0434
:1022D00027C02115310531F04217530718F0A90125
:1022E000DB0101C0EF019A01BD01DF010280F38132
:1022F000E02DD7CF21153105F9F0281B390B2430FB
:10230000310580F48A819B816115710521F0FB0103
:102310009383828304C090935C0480935B04FE01EA
:10232000329644C0FE01E20FF31F81939193225035
:102330003109398328833AC02091590430915A04D5
:10234000232B41F4209102013091030130935A0470
:10235000209359042091000130910101211531058C
:1023600041F42DB73EB74091040150910501241B63
:10237000350BE0915904F0915A04E217F307A0F4E9
:102380002E1B3F0B2817390778F0AC014E5F5F4FCB
:102390002417350748F04E0F5F1F50935A0440939F
:1023A00059048193919302C0E0E0F0E0CF01DF9106
:1023B000CF910895CF93DF93009709F487C0FC0174
:1023C000329713821282C0915B04D0915C042097F3
:1023D00081F420813181280F391F80915904909117
:1023E0005A048217930779F5F0935A04E09359043D
:1023F0006DC0DE0120E030E0AE17BF0750F412964A
:102400004D915C9113979D014115510509F1DA0138
:10241000F3CFB383A28340815181840F951F8A1724
:102420009B0771F48D919C911197840F951F0296D3
:102430009183808312968D919C91139793838283CD
:102440002115310529F4F0935C04E0935B043EC050
:10245000D9011396FC93EE9312974D915D91A40FC1
:10246000B51FEA17FB0779F480819181840F951FCE
:102470000296D90111969C938E9382819381139633
:102480009C938E931297E0E0F0E08A819B81009705
:1024900019F0FE01EC01F9CFCE01029628813981B5
:1024A000820F931F2091590430915A04281739073D
:1024B00069F4309729F410925C0410925B0402C016
:1024C00013821282D0935A04C0935904DF91CF91A2
:1024D0000895FB01DC0104C08D910190801921F465
:1024E00041505040C8F7881B990B0895DC0101C08A
:1024F0006D9341505040E0F70895BB274A3031F4C6
:10250000992322F4BDE2909581959F4F0C948912F6
:10251000BB27FB015527AA27880F991FAA1FA417BD
:1025200010F0A41B83955051B9F7A05DAA3308F0B1
:10253000A95DA193009779F7B111B1931192CB01E5
:102540000C94AC14AEE0B0E0E8EAF2E10C945A1559
:102550000D891E8986E08C831A8309838FEF9FE79C
:102560009E838D83AE01475E5F4F6F89788DCE016C
:1025700001960E94C412EF81F885E00FF11F1082CE
:102580002E96E4E00C947615ACE0B0E0EAECF2E1D3
:102590000C944C157C016B018A01FC011782168298
:1025A000838181FFBDC1CE0101964C01F70193816A
:1025B000F60193FD859193FF81916F01882309F4C2
:1025C000ABC1853239F493FD859193FF81916F0101
:1025D000853229F4B70190E00E94BC14E7CF512C5A
:1025E000312C20E02032A0F48B3269F030F48032BC
:1025F00059F0833269F420612CC08D3239F0803378
:1026000039F4216026C02260246023C0286021C0E4
:1026100027FD27C030ED380F3A3078F426FF06C08A
:10262000FAE05F9E300D1124532E13C08AE0389ECD
:10263000300D1124332E20620CC08E3221F426FD81
:102640006BC1206406C08C3611F4206802C0883645
:1026500041F4F60193FD859193FF81916F01811102
:10266000C1CF982F9F7D9554933028F40C5F1F4F56
:10267000FFE3F9830DC0833631F0833771F0833582
:1026800009F05BC022C0F801808189830E5F1F4F73
:1026900044244394512C540115C03801F2E06F0ECC
:1026A000711CF801A080B18026FF03C0652D70E089
:1026B00002C06FEF7FEFC5012C870E94A1142C018F
:1026C00083012C852F77222E17C03801F2E06F0E80
:1026D000711CF801A080B18026FF03C0652D70E059
:1026E00002C06FEF7FEFC5012C870E9496142C016A
:1026F0002C852068222E830123FC1BC0832D90E0B3
:1027000048165906B0F4B70180E290E00E94BC146C
:102710003A94F4CFF50127FC859127FE81915F0162
:10272000B70190E00E94BC1431103A94F1E04F1AC6
:1027300051084114510471F7E5C0843611F089360F
:1027400039F5F80127FF07C060817181828193818B
:102750000C5F1F4F08C060817181882777FD8095CD
:10276000982F0E5F1F4F2F76B22E97FF09C09095BE
:102770008095709561957F4F8F4F9F4F2068B22E47
:102780002AE030E0A4010E94EE14A82EA81844C04C
:10279000853729F42F7EB22E2AE030E025C0F22FB3
:1027A000F97FBF2E8F36C1F018F4883579F0B4C0A8
:1027B000803719F0883721F0AFC02F2F2061B22E5B
:1027C000B4FE0DC08B2D8460B82E09C024FF0AC052
:1027D0009F2F9660B92E06C028E030E005C020E1AA
:1027E00030E002C020E132E0F801B7FE07C06081AE
:1027F0007181828193810C5F1F4F06C0608171815E
:1028000080E090E00E5F1F4FA4010E94EE14A82EFE
:10281000A818FB2DFF77BF2EB6FE0BC02B2D2E7FE9
:10282000A51450F4B4FE0AC0B2FC08C02B2D2E7EB5
:1028300005C07A2C2B2D03C07A2C01C0752C24FFE7
:102840000DC0FE01EA0DF11D8081803311F4297E57
:1028500009C022FF06C07394739404C0822F867847
:1028600009F0739423FD13C020FF06C05A2C731483
:1028700018F4530C5718732C731468F4B70180E2E2
:1028800090E02C870E94BC1473942C85F5CF7314B0
:1028900010F4371801C0312C24FF12C0B70180E3B7
:1028A00090E02C870E94BC142C8522FF17C021FFCA
:1028B00003C088E590E002C088E790E0B7010CC053
:1028C000822F867859F021FD02C080E201C08BE2A0
:1028D00027FD8DE2B70190E00E94BC14A51438F4E6
:1028E000B70180E390E00E94BC145A94F7CFAA94F9
:1028F000F401EA0DF11D8081B70190E00E94BC1443
:10290000A110F5CF332009F451CEB70180E290E059
:102910000E94BC143A94F6CFF7018681978102C0D9
:102920008FEF9FEF2C96E2E10C946815FC01059067
:10293000615070400110D8F7809590958E0F9F1FC1
:102940000895FC016150704001900110D8F7809506
:1029500090958E0F9F1F0895DC01FC01672F7191E8
:102960007723E1F7329704C07C916D937083629175
:10297000AE17BF07C8F308950F931F93CF93DF934C
:10298000182F092FEB018B8181FD03C08FEF9FEF83
:1029900020C082FF10C04E815F812C813D81421793
:1029A00053077CF4E881F9819F012F5F3F4F398302
:1029B0002883108306C0E885F985812F0995892B26
:1029C00029F72E813F812F5F3F4F3F832E83812F39
:1029D000902FDF91CF911F910F910895FA01AA27AF
:1029E000283051F1203181F1E8946F936E7F6E5F52
:1029F0007F4F8F4F9F4FAF4FB1E03ED0B4E03CD000
:102A0000670F781F891F9A1FA11D680F791F8A1FE2
:102A1000911DA11D6A0F711D811D911DA11D20D049
:102A200009F468943F912AE0269F11243019305D03
:102A30003193DEF6CF010895462F4770405D4193F4
:102A4000B3E00FD0C9F7F6CF462F4F70405D4A3341
:102A500018F0495D31FD4052419302D0A9F7EACF09
:102A6000B4E0A6959795879577956795BA95C9F738
:102A700000976105710508959B01AC010A2E06942B
:102A80005795479537952795BA95C9F7620F731FE4
:102A9000841F951FA01D08952F923F924F925F9221
:102AA0006F927F928F929F92AF92BF92CF92DF925E
:102AB000EF92FF920F931F93CF93DF93CDB7DEB7C3
:102AC000CA1BDB0B0FB6F894DEBF0FBECDBF099457
:102AD0002A88398848885F846E847D848C849B84AE
:102AE000AA84B984C884DF80EE80FD800C811B81BC
:102AF000AA81B981CE0FD11D0FB6F894DEBF0FBEEB
:0A2B0000CDBFED010895F894FFCF5A
:102B0A0000005D048000FF0000FFFF014130203D0E
:102B1A002025732056002564683A25646D3A256499
:102B2A007300523A256400473A256400423A256404
:102B3A0000414443004C4344205461736B004C45AC
:102B4A0044205461736B00000000000000005F0025
:102B5A00000007000700147F147F14242A7F2A121A
:102B6A002313086462364955225000050300000009
:102B7A001C2241000041221C0014083E08140808C7
:102B8A003E08080050300000080808080800606085
:102B9A00000020100804023E5149453E00427F4091
:102BAA000042615149462141454B311814127F10A8
:102BBA0027454545393C4A494930017109050336DB
:102BCA0049494936064949291E0036360000005649
:102BDA00360000081422410014141414140041226F
:102BEA0014080201510906324979413E7E11111138
:102BFA007E7F494949363E414141227F4141221C5B
:102C0A007F494949417F090909013E4149497A7F7A
:102C1A000808087F00417F41002040413F017F08AA
:102C2A001422417F404040407F020C027F7F04080B
:102C3A00107F3E4141413E7F090909063E4151212B
:102C4A005E7F09192946464949493101017F010137
:102C5A003F4040403F1F2040201F3F4038403F63D5
:102C6A001408146307087008076151494543007F37
:102C7A0041410002040810200041417F0004020182
:102C8A0002044040404040000102040020545454D1
:102C9A00787F484444383844444420384444487F80
:102CAA003854545418087E0901020C5252523E7F7D
:102CBA000804047800447D40002040443D007F1011
:102CCA0028440000417F40007C041804787C0804F2
:102CDA00047838444444387C14141408081414182A
:102CEA007C7C080404084854545420043F4440207F
:102CFA003C4040207C1C2040201C3C4030403C444E
:102D0A00281028440C5050503C4464544C44000849
:102D1A0036410000007F0000004136080010080814
:102D2A001008784641467849444C4500A5A5A5A512
:102D3A00A5A5A5A5A5A5A5A5A5A5A5A5A5A5A5A539
:102D4A0000000000880C040E0A0C230C150C660CFB
:00000001FF
